:020000040800F2
:10000000909000209D010008E53C0008DD300008CC
:10001000E13C0008CD020008F146000800000000A5
:10002000000000000000000000000000F13E000899
:10003000E105000800000000E13D000885410008DE
:10004000B7010008B7010008B7010008B7010008B0
:10005000B7010008B7010008B7010008B7010008A0
:10006000B7010008B7010008B7010008B701000890
:1000700089040008B7010008B7010008B7010008AB
:10008000B7010008B7010008B7010008B701000870
:10009000D1020008B7010008B7010008B701000845
:1000A000B7010008B7010008B7010008B701000850
:1000B000B7010008B7010008B7010008B701000840
:1000C000B7010008B7010008B7010008B701000830
:1000D000B7010008B7010008B7010008A9450008EA
:1000E000B7010008B7010008B7010008B701000810
:1000F000B7010008B7010008B7010008B701000800
:10010000B7010008B701000875420008B7010008F0
:10011000B7010008B7010008B7010008B7010008DF
:10012000B7010008B7010008B7010008B7010008CF
:10013000B7010008B7010008B7010008B7010008BF
:10014000B7010008E1020008B7010008B701000884
:10015000B7010008B7010008B7010008B70100089F
:10016000B7010008B7010008B7010008B70100088F
:10017000B7010008B7010008B7010008000000003F
:10018000B7010008B7010008DFF80CD000F08CF8C8
:100190000048004795490008909000200648804795
:1001A00006480047FEE7FEE7FEE7FEE7FEE7FEE75C
:1001B000FEE7FEE7FEE7FEE761420008890100086E
:1001C0002DE9F05F0546002092469B46884606468C
:1001D000814640241BE0284641464746224600F01F
:1001E00053F853465A46C01A914110D31146184647
:1001F000224600F03AF82D1A67EB01084F462246D6
:100200000120002100F031F817EB00094E41201EBB
:10021000A4F10104DFDC484631462A464346BDE8E6
:10022000F09F40EA01039B0703D009E008C9121FB1
:1002300008C0042AFAD203E011F8013B00F8013BA0
:10024000521EF9D27047D2B201E000F8012B491ECC
:10025000FBD270470022F6E710B513460A46044663
:100260001946FFF7F0FF204610BD202A04DB203A94
:1002700000FA02F1002070479140C2F1200320FAF9
:1002800003F3194390407047202A04DB203A21FAF7
:1002900002F00021704721FA02F3D040C2F120029F
:1002A0009140084319467047064C074D06E0E06848
:1002B00040F0010394E8070098471034AC42F6D3AD
:1002C000FFF766FF6878000888780008FFE7FEE718
:1002D00080B540F21450C2F2000000F05FFC80BD17
:1002E00080B540F23C50C2F2000000F057FC80BDE7
:1002F00080B586B0ADF81600ADF81410ADF8122038
:10030000ADF8103040F2B841C2F200014FF4007075
:10031000086000208860C860082008619DF8170008
:1003200040F2B042C2F20002019210709DF8160035
:1003300050709DF8150090709DF81400D0709DF8D5
:10034000130010719DF8120050719DF8110090710A
:100350009DF81000D07140F21450C2F2000003ABBF
:1003600000F092F98DF80B00012810D1FFE740F260
:100370001450C2F2000040F2B841C2F2000140F253
:10038000B042C2F2000203AB00F07EF9FFE706B014
:1003900080BD000080B584B0ADF80E0040F2E441AD
:1003A000C2F2000140F2FF10086000208860C860BF
:1003B000022008619DF80F0040F2D442C2F2000210
:1003C00010709DF80E00507040F21450C2F2000000
:1003D00002AB00F059F98DF80700012810D1FFE7B2
:1003E00040F21450C2F2000040F2E441C2F20001B7
:1003F00040F2D442C2F2000202AB00F045F9FFE73E
:1004000004B080BD80B584B0ADF80E00ADF80C101E
:1004100040F2FC41C2F2000140F2FF1008600020EF
:100420008860C86006220A6140F2DC42C2F2000223
:10043000107050709DF80F0090709DF80E00D070F5
:100440009DF80D0010719DF80C00507140F23C5069
:10045000C2F2000002AB00F017F98DF80700012886
:1004600010D1FFE740F23C50C2F2000040F2FC41E4
:10047000C2F2000140F2DC42C2F2000202AB00F024
:1004800003F9FFE704B080BD80B540F26450C2F2CA
:10049000000001F091F880BD82B0019001980078D1
:1004A00010384AF6AB21CAF6AA21A0FB01100009B8
:1004B0000090009947F26E70C0F60000405C019910
:1004C000C8650098042807D3FFE70199086804224B
:1004D00062F30900886506E00199086840F2FF327E
:1004E00090438865FFE70198806D02B07047000077
:1004F00086B0059000208DF813000598806A03905F
:100500000598806910BBFFE70398029003281BD869
:100510000299DFE801F0020D0218059890F82F000B
:10052000C00720B1FFE701208DF81300FFE70CE0C2
:100530000598C06AB0F1C07F04D1FFE701208DF8B3
:100540001300FFE701E000E0FFE745E00598806960
:10055000B0F5005F25D1FFE70398019003281ED86E
:100560000199DFE801F00206021101208DF8130065
:1005700016E0059890F82F00C00720B1FFE7012092
:100580008DF81300FFE70BE00598C06AB0F1C07F5B
:1005900004D1FFE701208DF81300FFE700E0FFE73B
:1005A00019E003980090032804D3FFE7009803287C
:1005B00004D00EE001208DF813000BE0059890F8B0
:1005C0002F00C00720B1FFE701208DF81300FFE7DF
:1005D00000E0FFE7FFE7FFE79DF8130006B0704774
:1005E0007047000072B6FFE7FEE7000080B540F2FA
:1005F0001040C2F2000005210022012302F0AEFFEC
:1006000080BD000080B582B00190FFE740F6504009
:10061000C2F20000B0F9040000EE100AB8EEC00A01
:10062000B2EE081A20EE010A04F06CF8052004F07E
:10063000CDF9EBE784B002900191029890F8200088
:100640008DF803009DF80300012805D0FFE79DF811
:10065000030002280AD1FFE7019A0298016848695D
:100660001043486100208DF80F0008E00299486AA5
:1006700040F48020486201208DF80F00FFE79DF8CC
:100680000F0004B07047000088B0069005910492F6
:100690000393069890F820008DF8070006980068EC
:1006A000806800900598806808B9FFE700E0FFE7E0
:1006B0009DF80700012806D0FFE79DF807000228F3
:1006C00040F08080FFE79DF80300400700280CD42D
:1006D000FFE79DF803000007002806D4FFE79DF818
:1006E0000300C006002864D5FFE70098C0F301604E
:1006F000029002990120884003990860059880685B
:1007000068B9FFE705980168C06840EA415006995A
:100710000968029A01EB0211C1F880010EE0059907
:100720004A688868C96840EAC200084306990968AF
:10073000029A01EB0211C1F88001FFE705980069F8
:1007400006990968029A01EB0211C1F88401059823
:10075000007D01280CD1FFE706980068029900EBA4
:100760000111D1F8840140F48070C1F88401FFE7E1
:100770000498406806990968029A01EB0211C1F8D1
:100780008C010498006806990968029A01EB02112D
:10079000C1F8880106980068029900EB0111D1F8B0
:1007A000800140F00100C1F8800100208DF81F0099
:1007B00011E00699486A40F40010486201208DF863
:1007C0001F0008E00699486A40F480204862012032
:1007D0008DF81F00FFE79DF81F0008B0704700006C
:1007E00086B004900391049890F820008DF80300DF
:1007F0009DF80300012806D0FFE79DF803000228BA
:1008000040F0B080FFE746F20040C4F200000190E3
:100810000199D1F8000240F00100C1F800020199ED
:10082000D1F8000220F47C50C1F800020398426A1B
:100830000199D1F8000240EA0220C1F800020398B1
:10084000406900F01F01012088400290029A01993E
:10085000D1F81C029043C1F81C020398C069F0B99A
:10086000FFE7029A0199D1F80C029043C1F80C02FB
:10087000039A9088D168526940EA0140019901EBDE
:10088000C201C1F84002039A10889168526940EA97
:100890000140019901EBC201C1F84402FFE703984E
:1008A000C06901281ED1FFE7029A0199D1F80C0214
:1008B0001043C1F80C02039A90881168526940EA0B
:1008C0000140019901EBC201C1F84002039A9089ED
:1008D0009168526940EA0140019901EBC201C1F8F7
:1008E0004402FFE70398806940B9FFE7029A019943
:1008F000D1F804029043C1F8040207E0029A01997A
:10090000D1F804021043C1F80402FFE7039800691C
:1009100040B9FFE7029A0199D1F814029043C1F857
:10092000140207E0029A0199D1F814021043C1F8A9
:100930001402FFE70398006A012808D1FFE7029A32
:100940000199D1F81C021043C1F81C02FFE701997C
:10095000D1F8000220F00100C1F8000200208DF85B
:10096000170008E00499486A40F48020486201209A
:100970008DF81700FFE79DF8170006B070470000DC
:1009800081B0009001B0704786B00490039102924C
:100990000193049890F820008DF803009DF803005F
:1009A000012806D0FFE79DF80300022840F0E88008
:1009B000FFE7039880B9FFE704980068C0688007E4
:1009C00048B9FFE70499486A40F4001048620120E2
:1009D0008DF81700DDE00FE00498006800698007DB
:1009E00048B9FFE70499486A40F4001048620120C2
:1009F0008DF81700CDE0FFE704980068039900EB3D
:100A00000110D0F8B00100F004000299886002984B
:100A1000806858B9FFE704980068039900EB01105B
:100A2000D0F8B001400D029908600AE0049800680F
:100A3000039900EB0110D0F8B001C008029948609A
:100A4000FFE704980068039900EB0110D0F8B001AB
:100A500000F002000299C86004980068039900EB56
:100A60000110D0F8B40100F00F00082804D3FFE70C
:100A70000299082008610BE004980068039900EBD4
:100A80000110D0F8B40100F00F0002990861FFE7EF
:100A900004980068039900EB0110D0F8B40180B20B
:100AA000000A0299886104980068039900EB01101C
:100AB000D0F8B401000C02994861049800680399C9
:100AC00000EB0110D0F8B801019908700498006893
:100AD000039900EB0110D0F8B801000A01994870A1
:100AE00004980068039900EB0110D0F8B801000CDD
:100AF0000199887004980068039900EB0110D0F800
:100B0000B801000E0199C87004980068039900EBC1
:100B10000110D0F8BC01019908710498006803998C
:100B200000EB0110D0F8BC01000A0199487104984B
:100B30000068039900EB0110D0F8BC01000C01998A
:100B4000887104980068039900EB0110D0F8BC018B
:100B5000000E0199C871039838B9FFE7049801683D
:100B6000C86840F02000C86006E004980168086981
:100B700040F020000861FFE700208DF8170008E032
:100B80000499486A40F48020486201208DF81700DB
:100B9000FFE79DF8170006B07047000080B58AB0E7
:100BA000099000200890099800684069079009980A
:100BB0000068406806900998006880680590099868
:100BC0000068C0680490099800680069039009985B
:100BD0000068806902909DF81C00C007002800F0A2
:100BE0009480FFE79DF81400C00758B3FFE7099809
:100BF0000168012088609DF814008007002804D552
:100C0000FFE7099800F0C0FC1BE09DF814004007C6
:100C1000002805D5FFE7089840F4006008900FE031
:100C20009DF814000007002805D5FFE7089840F458
:100C30008050089003E0099800F0A2FCFFE7FFE76E
:100C4000FFE7FFE79DF81500C00760B3FFE70998CD
:100C500001684FF4807088609DF8150080070028B7
:100C600004D5FFE7099800F097FC1BE09DF81500FC
:100C70004007002805D5FFE7089840F40050089089
:100C80000FE09DF815000007002805D5FFE708983C
:100C900040F48040089003E0099800F079FCFFE7F9
:100CA000FFE7FFE7FFE79DF81600C00760B3FFE727
:100CB000099801684FF4803088609DF8160080071D
:100CC000002804D5FFE7099800F06EFC1BE09DF8B2
:100CD00016004007002805D5FFE7089840F40040BB
:100CE00008900FE09DF816000007002805D5FFE7E3
:100CF000089840F48030089003E0099800F050FC18
:100D0000FFE7FFE7FFE7FFE7FFE79DF81C000007AD
:100D1000002810D5FFE79DF81000C006002809D56F
:100D2000FFE7089840F400700890099801681020C7
:100D3000C860FFE7FFE79DF81C00400700280FD5BB
:100D4000FFE79DF810000007002808D5FFE7099885
:100D500001680820C860099800F0CCFAFFE7FFE7B7
:100D60009DF81C00800700280BD5FFE70998006854
:100D7000C068800720B1FFE7099800F0BFFAFFE7DD
:100D8000FFE79DF81C004006002810D5FFE79DF8FE
:100D90000C00C006002809D5FFE7089840F48060E1
:100DA00008900998016810200861FFE7FFE79DF8A7
:100DB0001C00800600280FD5FFE79DF80C000007F7
:100DC000002808D5FFE709980168082008610998FC
:100DD00000F00EFBFFE7FFE79DF81C00C0060028AF
:100DE0000BD5FFE7099800680069800720B1FFE78D
:100DF000099800F001FBFFE7FFE79DF81E00800760
:100E000000280FD5FFE79DF81800C006002808D578
:100E1000FFE70998016810204860099800F066FB18
:100E2000FFE7FFE79DF81E00C00778B1FFE79DF8D8
:100E300018000007002808D5FFE709980168082076
:100E40004860099800F0B4FBFFE7FFE79DF81D003C
:100E50000006002840F18D80FFE79DF8180040074C
:100E6000002840F18180FFE79DF81D00C00750B1C8
:100E7000FFE79DF80800C00728B1FFE7089840F099
:100E800001000890FFE79DF81D00800700280BD5A2
:100E9000FFE79DF808008007002805D5FFE70898C0
:100EA00040F002000890FFE79DF81D004007002871
:100EB0000BD5FFE79DF808004007002805D5FFE7A0
:100EC000089840F004000890FFE79DF81D00000717
:100ED000002848D5FFE79DF8080010F0700F42D0B9
:100EE000FFE7029800F0700001460191102814D02D
:100EF000FFE70198202815D0FFE70198302816D089
:100F0000FFE70198402817D0FFE70198502818D034
:100F1000FFE70198602819D01DE0089840F008000C
:100F2000089019E0089840F01000089014E0089824
:100F300040F0200008900FE0089840F04000089032
:100F40000AE0089840F08000089005E0089840F416
:100F50008070089000E0FFE709980168886920F038
:100F600070008861FFE7FFE7099801680420486086
:100F7000FFE7089848B1FFE7089A0999486A1043C3
:100F800048620998FFF7FCFCFFE70AB080BD00004B
:100F900080B584B00290029820B9FFE701208DF857
:100FA0000F00E0E0029890F8200020B9FFE70298D7
:100FB00000F0DEF8FFE702980168086840F00100E1
:100FC000086000F01DFF0190FFE70298006840688C
:100FD000C007A8B9FFE700F013FF0199401A0B28DA
:100FE0000DD3FFE70299486A40F400304862029945
:100FF000052081F8200001208DF80F00B3E0E4E720
:1010000002980168086820F00200086000F0F8FE0D
:101010000190FFE70298006840688007002815D516
:10102000FFE700F0EDFE0199401A0B280DD3FFE712
:101030000299486A40F4003048620299052081F81C
:10104000200001208DF80F008DE0E3E70298007E7C
:10105000012807D1FFE702980168086840F0800086
:10106000086006E002980168086820F080000860C7
:10107000FFE70298407E012807D1FFE70298016848
:10108000086840F04000086006E0029801680868BF
:1010900020F040000860FFE70298807E012807D119
:1010A000FFE702980168086840F02000086006E049
:1010B00002980168086820F020000860FFE70298A5
:1010C000C07E012807D1FFE702980168086820F078
:1010D0001000086006E002980168086840F01000FF
:1010E0000860FFE70298007F012807D1FFE7029818
:1010F0000168086840F00800086006E0029801688E
:10110000086820F008000860FFE70298407F012887
:1011100007D1FFE702980168086840F00400086002
:1011200006E002980168086820F004000860FFE704
:10113000029B19685A689868D3F80CC040EA0C0002
:10114000D3F810C040EA0C005B691843013A104321
:10115000C861029900204862029A012182F8201099
:101160008DF80F00FFE79DF80F0004B080BD000070
:1011700080B590B00F9000200E900D900C900B90C9
:101180000A900F98006846F20041C4F200018842BC
:1011900049D1FFE740F29820C2F200000168013116
:1011A00001600068012812D1FFE7FFE700200990E5
:1011B00043F64000C4F20200016841F00071016092
:1011C000006800F0007009900998FFE7FFE7FFE76B
:1011D0000020089043F63000C4F20200016841F09C
:1011E00008010160006800F0080008900898FFE717
:1011F00003200A9002210B91002103910C910D9084
:1012000009200E9040F60040C4F202000AA900F046
:101210001BFC039A14200490052100F0CFFE0498D3
:1012200000F0C2FE64E00F98006846F60001C4F2C8
:10123000000188425BD1FFE7FFE70020079043F6FB
:101240004000C4F20200016841F080610160006862
:1012500000F0806007900798FFE740F29820C2F204
:1012600000000168013101600068012812D1FFE728
:10127000FFE70020069043F64000C4F20200016838
:1012800041F000710160006800F00070069006985F
:10129000FFE7FFE7FFE70020059043F63000C4F2C8
:1012A0000200016841F002010160006800F00200E4
:1012B00005900598FFE760200A9002200B9000201F
:1012C00001900C9003200D9009200E9040F20040F8
:1012D000C4F202000AA900F0B7FB019A4120029073
:1012E000052100F06BFE029800F05EFEFFE7FFE7CD
:1012F00010B080BD81B0009001B0704780B58CB057
:101300000B900B9840F21451C2F20001884201D0B8
:10131000FFE76AE00B980068C06800F01001002049
:10132000B0EB111F05D0FFE70B9801681020C860D3
:101330005BE00B98002104AA02ABFFF725FB8DF8B8
:1013400007009DF8070008B1FFE74EE00498A0F2FF
:101350000120042848D8FFE70498411E40F2942059
:10136000C2F2000001700078072801DBFFE73CE0D3
:1013700040F29422C2F20002107800EB800040F2AA
:101380009C61C2F2000101EB400331F810001881AA
:101390009DF808309DF8090040EA0320137803EB1C
:1013A000830321F813009DF80A309DF80B0040EAF2
:1013B0000320137803EB830301EB430358809DF86C
:1013C0000C309DF80D0040EA0320137803EB8303F3
:1013D00001EB430398809DF80E00127802EB820225
:1013E00001EB4201887100E0FFE70CB080BD000016
:1013F00081B0009001B0704780B58CB00B900B9815
:1014000040F23C51C2F20001884201D0FFE76AE09D
:101410000B980068006900F010010020B0EB111F6C
:1014200005D0FFE70B980168102008615BE00B987E
:10143000012104AA02ABFFF7A7FA8DF807009DF877
:10144000070008B1FFE74EE00498A0F2062001284B
:1014500048D8FFE70498411E40F29520C2F20000F0
:1014600001700078072801DBFFE73CE040F295229D
:10147000C2F20002107800EB800040F29C61C2F2E0
:10148000000101EB400331F8100018819DF808308D
:101490009DF8090040EA0320137803EB830321F849
:1014A00013009DF80A309DF80B0040EA03201378E2
:1014B00003EB830301EB430358809DF80C309DF848
:1014C0000D0040EA0320137803EB830301EB430391
:1014D00098809DF80E00127802EB820201EB420127
:1014E000887100E0FFE70CB080BD000081B0009083
:1014F00001B0704780B584B00290029890F8200047
:1015000001282FD1FFE70299022081F820000298DC
:101510000168086820F00100086000F071FC01908B
:10152000FFE7029800684068C007A8B1FFE700F035
:1015300067FC0199401A0B280DD3FFE70299486A0E
:1015400040F4003048620299052081F82000012013
:101550008DF80F000FE0E4E70299002048628DF853
:101560000F0008E00299486A40F400204862012018
:101570008DF80F00FFE79DF80F0004B080BD00005C
:1015800081B0009001B0704781B0009001B0704709
:1015900081B0009001B0704781B0009001B07047F9
:1015A00081B0009001B0704781B0009001B07047E9
:1015B00081B0009001B0704780B586B005900020E2
:1015C000039040F20000C2F20000006848F2B5113A
:1015D000C1F64E31A0FB0110800A02900598806D83
:1015E000019001980068049004980599C96DC8405D
:1015F000000700281AD5FFE7059800680068400733
:10160000002812D5FFE705980168086820F004005B
:1016100008600598C16D0820884001998860059987
:10162000486D40F001004865FFE7FFE70498059921
:10163000C96DC840C007A0B1FFE7059800684069C0
:10164000000600280CD5FFE70598C16D01208840F1
:10165000019988600599486D40F002004865FFE7F0
:10166000FFE704980599C96DC8404007002814D5C4
:10167000FFE7059800680068800700280CD5FFE7A1
:101680000598C16D04208840019988600599486DCE
:1016900040F004004865FFE7FFE704980599C96D2D
:1016A000C840C006002847D5FFE7059800680068D5
:1016B000000700283FD5FFE70598C16D102088403E
:1016C00001998860059800680068400300281AD5D1
:1016D000FFE70598006800680003002809D4FFE7C9
:1016E0000598006C20B1FFE70598016C8847FFE77B
:1016F00008E00598806C20B1FFE70598816C884769
:10170000FFE7FFE716E0059800680068C0050028BD
:1017100007D4FFE705980168086820F00800086012
:10172000FFE70598006C20B1FFE70598016C88473A
:10173000FFE7FFE7FFE7FFE704980599C96DC84099
:101740008006002840F18D80FFE70598006800685A
:10175000C006002840F18480FFE70598C16D202075
:10176000884001998860059890F83500052834D1A3
:10177000FFE705980168086820F0160008600598E2
:101780000168486920F0800048610598006C20B924
:10179000FFE70598806C38B1FFE705980168086895
:1017A00020F008000860FFE70598C16D3F208840E1
:1017B000019988600599012081F83500FFE70599B6
:1017C000002081F83400FFE70598006D20B1FFE7A5
:1017D0000598016D8847FFE77BE005980068006881
:1017E000400300281AD5FFE7059800680068000349
:1017F000002809D4FFE70598406C20B1FFE7059861
:10180000416C8847FFE708E00598C06B20B1FFE70F
:101810000598C16B8847FFE7FFE720E0059800685F
:101820000068C005002811D4FFE705980168086822
:1018300020F0100008600599012081F83500FFE7CD
:101840000599002081F83400FFE7FFE70598C06B99
:1018500020B1FFE70598C16B8847FFE7FFE7FFE787
:10186000FFE70598406DA0B3FFE70598406DC007FE
:1018700030B3FFE70599052081F835000598016828
:10188000086820F001000860FFE70398013003902A
:101890000299884201D9FFE707E0FFE70598006851
:1018A0000068C0070028F0D1FFE70599012081F802
:1018B0003500FFE70599002081F83400FFE7FFE7D6
:1018C0000598C06C20B1FFE70598C16C8847FFE719
:1018D000FFE706B080BD000080B586B00490002010
:1018E000039000F08DFA0290049820B9FFE70120E0
:1018F0008DF81700A3E00498406A08B1FFE7FFE7FE
:101900000499022081F83500FFE70499002081F84E
:101910003400FFE704980168086820F001000860BF
:10192000FFE7049800680068C00790B1FFE700F087
:1019300067FA0299401A06280AD3FFE70499202083
:1019400048650499032081F835008DF8170076E08A
:10195000E7E70498006800680390039848F23F01A5
:10196000CFF2100108400390049900914868D1F823
:1019700008C0CB680A6940EA0C00184310434A6962
:1019800010438A691043CA691043096A01430398E6
:10199000084303900498406A042808D1FFE704999B
:1019A000C86A096B0143039808430390FFE7039853
:1019B00004990968086004980068406903900398D6
:1019C00020F0070003900498416A039808430390AD
:1019D0000498406A04281AD1FFE70498816A0398A2
:1019E000084303900498C06A80B1FFE70498FEF7AB
:1019F0007FFD50B1FFE7049940204865049901201C
:101A000081F835008DF8170019E0FFE7FFE703982C
:101A10000499096848610498FEF73EFD0190049816
:101A2000C16D3F2088400199886004990020486575
:101A3000049A012182F835108DF81700FFE79DF810
:101A4000170006B080BD00008EB00D900C910020F4
:101A50000A90099008900B90FFE70B980F2800F26E
:101A6000CC81FFE70B99012088400A900C98006810
:101A70000A990840099009980A99884240F0B8816B
:101A8000FFE70C98406800F00300012807D0FFE74B
:101A90000C98406800F0030002282FD1FFE70D9852
:101AA000806808900B984100032000FA01F1089823
:101AB000884308900C98C0680B99490000FA01F11E
:101AC00008980843089008980D9988600D98406818
:101AD00008900B99012000FA01F1089888430890BA
:101AE0000C984068C0F300100B9900FA01F10898B7
:101AF0000843089008980D994860FFE70C984068E3
:101B000000F00300032818D0FFE70D98C068089084
:101B10000B984100032000FA01F1089888430890CF
:101B20000C9880680B99490000FA01F10898084365
:101B3000089008980D99C860FFE70C98406800F07D
:101B40000300022826D1FFE70D980B996FF00302DE
:101B500002EA51010844006A08900B9800F007005F
:101B600081000F2000FA01F10898884308900C9832
:101B700000690B9901F00701890000FA01F108984A
:101B80000843089008980D990B9B02EA53021144F0
:101B90000862FFE70D98006808900B984100032049
:101BA00000FA01F10898884308900C98406800F00A
:101BB00003000B99490000FA01F1089808430890C6
:101BC00008980D9908600C9880798007002800F02B
:101BD0000E81FFE7FFE70020079043F64400C4F2C0
:101BE0000200016841F480410160006800F4804017
:101BF00007900798FFE70B9820F0030043F60801D1
:101C0000C4F20101405808900B9800F003008100D5
:101C10000F2000FA01F10898884308900D980021E0
:101C2000C4F20201884203D1FFE7002006905EE083
:101C30000D9840F20041C4F20201884203D1FFE74F
:101C40000120059050E00D9840F60001C4F2020119
:101C5000884203D1FFE70220049042E00D9840F64D
:101C60000041C4F20201884203D1FFE70320039040
:101C700034E00D9841F20001C4F20201884203D120
:101C8000FFE70420029026E00D9841F20041C4F2E3
:101C90000201884203D1FFE70520019018E00D986A
:101CA00041F60001C4F20201884203D1FFE7062099
:101CB00000900AE00D9941F60042C4F202020820A9
:101CC000914208BF07200090FFE700980190FFE7CE
:101CD00001980290FFE702980390FFE703980490B1
:101CE000FFE704980590FFE705980690FFE7069840
:101CF000C0B20B9901F00301890000FA01F10898C4
:101D00000843089008980B9921F0030143F6080254
:101D1000C4F20102885043F60840C4F20100006892
:101D2000089009990898884308900C988079C00613
:101D3000002805D5FFE70999089808430890FFE7B0
:101D4000089843F60841C4F20101086043F60C40CC
:101D5000C4F2010000680890099908988843089027
:101D60000C9880798006002805D5FFE70999089826
:101D700008430890FFE7089843F60C41C4F20101BC
:101D8000086043F60440C4F2010000680890099915
:101D90000898884308900C9880798007002805D51A
:101DA000FFE70999089808430890FFE7089843F669
:101DB0000441C4F20101086043F60040C4F201008E
:101DC0000068089009990898884308900C988079D1
:101DD000C00728B1FFE70999089808430890FFE772
:101DE000089843F60041C4F201010860FFE7FFE7ED
:101DF000FFE70B9801300B902FE60EB07047000004
:101E000044F6B400C2F200000068704740F20400DB
:101E1000C2F20000027844F6B401C2F20001086880
:101E2000104408607047000080B543F60041C4F2DA
:101E30000201086840F400700860086840F480609F
:101E40000860086840F480700860032000F0D0F853
:101E50000F2000F005F800F07BF8002080BD0000A6
:101E600080B58CB00B90002004900390FFE7002019
:101E7000009043F64000C4F20200016841F00801FE
:101E80000160006800F0080000900098FFE706A8D5
:101E900002A900F0E7F909980490049820B9FFE737
:101EA00000F010FA059004E000F00CFA40000590F4
:101EB000FFE705984DF68361C4F21B31A0FB0101D9
:101EC0004FF0FF3000EB9140039040F2C450C2F25B
:101ED000000040F60041C4F20001016040F2E73129
:101EE000C16003994160002101618160816100F05E
:101EF000E9FD8DF807009DF8070028BBFFE740F2D9
:101F0000C450C2F2000000F02FFE8DF807009DF8CB
:101F10000700C0B9FFE7322000F046F80B980F2801
:101F20000CD8FFE70B993220002200F047F80B98FD
:101F300040F20801C2F20001086003E001208DF8C0
:101F40000700FFE7FFE7FFE79DF807000CB080BD43
:101F500080B582B0FFE70020019043F64400C4F250
:101F60000200016841F480410160006800F4804093
:101F700001900198FFE7FFE70020009043F6400042
:101F8000C4F20200016841F080510160006800F075
:101F9000805000900098FFE76FF001000F210022B1
:101FA00000F00CF802B080BD80B582B08DF807005B
:101FB0009DF9070002F0CAFB02B080BD80B586B073
:101FC0008DF81700049103920020029002F0D6FBD6
:101FD00002909DF91700019002980499039A01F06C
:101FE00083FE0146019802F0D1FB06B080BD0000DF
:101FF00080B582B00190019802F00CFC02B080BD67
:1020000080B584B002900191029820B9FFE70120C9
:102010008DF80F0021E1019843F60041C4F202015E
:10202000096801F00701884212D9FFE7019943F6D8
:102030000040C4F202000170006800F0070001993E
:10204000884204D0FFE701208DF80F0005E1FFE78B
:1020500002980078800700282AD5FFE702980078C8
:102060004007002809D5FFE743F60801C4F2020142
:10207000086840F4E0500860FFE702980078000725
:10208000002809D5FFE743F60801C4F202010868F9
:1020900040F460400860FFE743F60801C4F2020123
:1020A000086820F0F000029A926810430860FFE789
:1020B00002980078C00700286ED0FFE702984068B9
:1020C000012811D1FFE743F60000C4F202000068C6
:1020D00000F400310020B0EB514F04D1FFE70120A4
:1020E0008DF80F00B9E02CE002984068022805D076
:1020F000FFE702984068032811D1FFE743F600008C
:10210000C4F20200006800F000710020B0EB516FD3
:1021100004D1FFE701208DF80F009EE010E043F6A8
:102120000000C4F20200006800F002010020B0EBE1
:10213000510F04D1FFE701208DF80F008DE0FFE77C
:10214000FFE743F60801C4F20201086820F003002B
:10215000029A526810430860FFF752FE0090FFE7B2
:1021600043F60800C4F20200006800F00C00029977
:102170004968B0EB810F0ED0FFE7FFF741FE0099F1
:10218000401A41F28931884204D3FFE703208DF8D9
:102190000F0062E0E4E7FFE7019843F60041C4F274
:1021A0000201096801F00701884212D2FFE7019994
:1021B00043F60040C4F202000170006800F007001E
:1021C0000199884204D0FFE701208DF80F0044E018
:1021D000FFE702980078400700280CD5FFE743F698
:1021E0000801C4F20201086820F4E050029AD268A3
:1021F00010430860FFE702980078000700280DD51B
:10220000FFE743F60801C4F20201086820F46040C9
:10221000029A126940EAC2000860FFE700F076F80F
:1022200043F60801C4F202010968C9B20A0947F27B
:102230005671C0F60001895CC84040F20001C2F24C
:102240000001086040F20800C2F200000068FFF7D9
:1022500007FE00208DF80F00FFE79DF80F0004B087
:1022600080BD000082B00190009101990F200860AC
:1022700043F60800C4F20200016801F00301019A6C
:102280005160016801F0F001019A9160016801F468
:10229000E051019AD160006800F46040C0080199E3
:1022A000086143F60040C4F20200006800F0070035
:1022B0000099086002B0704740F20000C2F20000CE
:1022C0000068704780B5FFF7F7FF43F60801C4F2D6
:1022D00002010968C1F3822247F26671C0F600016B
:1022E000895CC84080BD000080B5FFF7E5FF43F67C
:1022F0000801C4F20201096889B24A0B47F266710B
:10230000C0F60001895CC84080BD000080B586B081
:102310000020059004900390029043F60800C4F258
:102320000200006800F00C000146019140B1FFE797
:10233000019804280AD0FFE7019808280CD04FE044
:1023400042F20040C0F2F40002904FE047F6400035
:10235000C0F27D10029049E043F60400C4F202008E
:10236000016801F03F01059100684002002813D583
:10237000FFE743F60400C4F202000068C0F38810CF
:1023800047F64001C0F27D11A0FB0101059A002330
:10239000FDF716FF049012E043F60400C4F20200B9
:1023A0000068C0F3881042F20041C0F2F401A0FBC3
:1023B0000101059A0023FDF703FF0490FFE743F6B0
:1023C0000400C4F20200006800F44031022000EB77
:1023D000D130039004980399B0FBF1F0029005E02E
:1023E00042F20040C0F2F4000290FFE7029806B00B
:1023F00080BD000080B586B00490049820B9FFE746
:1024000001208DF8170050E304980078C0070028D9
:1024100000F0A580FFE743F60800C4F20200006860
:1024200000F00C00042813D0FFE743F60800C4F2C4
:102430000200006800F00C0008281ED1FFE743F6F8
:102440000400C4F2020000684002002815D5FFE72E
:1024500043F60000C4F20200006800F400310020DE
:10246000B0EB514F08D0FFE70498406820B9FFE770
:1024700001208DF8170018E370E0FFE7049840682A
:10248000B0F5803F09D1FFE743F60001C4F2020135
:10249000086840F48030086020E004984068B0F597
:1024A000A02F0DD1FFE743F60001C4F20201086836
:1024B00040F480200860086840F4803008600CE038
:1024C00043F60001C4F20201086820F4803008607D
:1024D000086820F480200860FFE7FFE7FFE7049822
:1024E0004068E8B1FFE7FFF78BFC0390FFE743F696
:1024F0000000C4F20200006800F400310020B0EBDC
:10250000514F0CD1FFE7FFF77BFC0399401A652878
:1025100004D3FFE703208DF81700C6E2E7E71CE0CD
:10252000FFF76EFC0390FFE743F60000C4F20200E1
:10253000006800F400310020B0EB514F0CD0FFE7F1
:10254000FFF75EFC0399401A652804D3FFE70320D8
:102550008DF81700A9E2E7E7FFE7FFE7FFE7049838
:1025600000788007002840F19680FFE743F60800D6
:10257000C4F20200006810F00C0F13D0FFE743F61E
:102580000800C4F20200006800F00C0008282CD1FA
:10259000FFE743F60400C4F202000068400200288E
:1025A00023D4FFE743F60000C4F20200006800F005
:1025B00002010020B0EB510F09D0FFE70498C0687A
:1025C000012804D0FFE701208DF817006DE243F6E3
:1025D0000001C4F20201086820F0F800049A1269B0
:1025E00040EAC2000860FFE754E00498C06870B396
:1025F000FFE70021C4F2472101200860FFF700FC3B
:102600000390FFE743F60000C4F20200006800F008
:1026100002010020B0EB510F0CD1FFE7FFF7F0FBF8
:102620000399401A032804D3FFE703208DF817000D
:102630003BE2E7E743F60001C4F20201086820F03C
:10264000F800049A126940EAC200086021E0002103
:10265000C4F2472100200860FFF7D2FB0390FFE798
:1026600043F60000C4F20200006800F002010020FE
:10267000B0EB510F0CD0FFE7FFF7C2FB0399401AF4
:10268000032804D3FFE703208DF817000DE2E7E7E6
:10269000FFE7FFE7FFE704980078000700284BD525
:1026A000FFE70498406918B3FFE740F68061C4F281
:1026B000472101200860FFF7A3FB0390FFE743F6E3
:1026C0007400C4F20200006800F002010020B0EBC8
:1026D000510F0CD1FFE7FFF793FB0399401A032832
:1026E00004D3FFE703208DF81700DEE1E7E722E0DF
:1026F00040F68061C4F2472100200860FFF780FBAC
:102700000390FFE743F67400C4F20200006800F093
:1027100002010020B0EB510F0CD0FFE7FFF770FB78
:102720000399401A032804D3FFE703208DF817000C
:10273000BBE1E7E7FFE7FFE70498007840070028E0
:1027400040F1CE80FFE700208DF8070043F64000FF
:10275000C4F202000068C000002815D4FFE7FFE7BC
:102760000020009043F64000C4F20200016841F0EE
:1027700080510160006800F0805000900098FFE7F1
:1027800001208DF80700FFE747F20000C4F20000C7
:102790000068C005002822D4FFE747F20001C4F218
:1027A0000001086840F480700860FFF729FB03907F
:1027B000FFE747F20000C4F200000068C0050028EF
:1027C0000CD4FFE7FFF71CFB0399401A032804D33E
:1027D000FFE703208DF8170067E1EAE7FFE7FFE76F
:1027E00004988068012809D1FFE743F67001C4F21C
:1027F0000201086840F0010008601FE0049880684A
:1028000005280DD1FFE743F67001C4F20201086804
:1028100040F004000860086840F0010008600CE027
:1028200043F67001C4F20201086820F0010008605C
:10283000086820F004000860FFE7FFE7FFE704985E
:102840008068F8B1FFE7FFF7DBFA0390FFE743F694
:102850007000C4F20200006800F002010020B0EB3A
:10286000510F0ED1FFE7FFF7CBFA0399401A41F25F
:102870008931884204D3FFE703208DF8170014E163
:10288000E5E71EE0FFF7BCFA0390FFE743F67000B0
:10289000C4F20200006800F002010020B0EB510F0A
:1028A0000ED0FFE7FFF7ACFA0399401A41F28931E5
:1028B000884204D3FFE703208DF81700F5E0E5E731
:1028C000FFE79DF80700012809D1FFE743F6400123
:1028D000C4F20201086820F080500860FFE7FFE7BB
:1028E00004988069002800F0DC80FFE743F60800C8
:1028F000C4F20200006800F00C00082800F0858097
:10290000FFE70498806902285CD1FFE76021C4F2E8
:10291000472100200860FFF773FA0390FFE743F6B2
:102920000000C4F20200006800F000710020B0EB6B
:10293000516F0CD0FFE7FFF763FA0399401A0328A1
:1029400004D3FFE703208DF81700AEE0E7E7049912
:10295000C869D1F820C04B6A8A6A40EA0C0040EA94
:102960008310D2034FF6FF739A43A2F580321043CF
:10297000C96A40EA016043F60401C4F2020108603A
:102980006021C4F2472101200860FFF739FA039063
:10299000FFE743F60000C4F20200006800F0007197
:1029A0000020B0EB516F0CD1FFE7FFF729FA039934
:1029B000401A032804D3FFE703208DF8170074E0C2
:1029C000E7E721E06021C4F2472100200860FFF71B
:1029D00017FA0390FFE743F60000C4F20200006814
:1029E00000F000710020B0EB516F0CD0FFE7FFF753
:1029F00007FA0399401A032804D3FFE703208DF850
:102A0000170052E0E7E7FFE74AE0049880690128F1
:102A100004D1FFE701208DF8170046E043F60400DB
:102A2000C4F202000068029004988069012831D045
:102A3000FFE7029800F480000499C969884229D10F
:102A4000FFE7029800F03F000499096A884221D10B
:102A5000FFE7029847F6C07108400499496AB0EB55
:102A6000811F17D1FFE7029800F440300499896A6A
:102A7000C9034FF6FF729143A1F58031884209D115
:102A8000FFE7029800F070600499C96AB0EB016F2B
:102A900004D0FFE701208DF8170006E0FFE7FFE70D
:102AA000FFE700208DF81700FFE79DF8170006B03C
:102AB00080BD000081B0009001B0704781B00090EF
:102AC00001B0704780B582B00090009820B9FFE750
:102AD00001208DF807003FE0009890F83D0040B9D4
:102AE000FFE70099002081F83C00009800F038F8DA
:102AF000FFE70099022081F83D00009951F8040B8E
:102B000001F0C0FB0099012081F84600FFE7009921
:102B1000012081F83E00009981F83F00009981F87A
:102B20004000009981F84100FFE7FFE7009901208C
:102B300081F84200009981F84300009981F844002F
:102B4000009981F84500FFE70099012081F83D00D8
:102B500000208DF80700FFE79DF8070002B080BD58
:102B600081B0009001B0704783B00190019890F857
:102B70003D00012804D0FFE701208DF80B006AE03A
:102B80000199022081F83D0001980168C86840F071
:102B90000100C860019800680021C4F20101884268
:102BA0003CD0FFE701980068B0F1804F36D0FFE7D6
:102BB0000198006840F20041C4F2000188422DD023
:102BC000FFE70198006840F60001C4F20001884266
:102BD00024D0FFE70198006840F60041C4F20001EC
:102BE00088421BD0FFE70198006840F20041C4F220
:102BF0000101884212D0FFE70198006844F2000109
:102C0000C4F20101884209D0FFE70198006841F64B
:102C10000001C4F20001884212D1FFE70198006868
:102C2000806800F0070000900098062807D0FFE7B2
:102C300001980168086840F001000860FFE706E0BD
:102C400001980168086840F001000860FFE7002073
:102C50008DF80B00FFE79DF80B0003B070470000F4
:102C600081B0009001B0704780B584B003900398A4
:102C70000068C068029003980068006901909DF8A0
:102C800004008007002824D5FFE79DF8080080078E
:102C900000281DD5FFE7039801686FF00200086166
:102CA000039901200877039800688069800720B1A4
:102CB000FFE70398FFF7D4FF06E0039800F0E2F87F
:102CC000039800F0E3F8FFE7039900200877FFE797
:102CD000FFE79DF804004007002825D5FFE79DF891
:102CE0000800400700281ED5FFE7039801686FF031
:102CF000040008610399022008770398006880693E
:102D000010F4407F04D0FFE70398FFF7A9FF06E027
:102D1000039800F0B7F8039800F0B8F8FFE70399BC
:102D200000200877FFE7FFE79DF804000007002870
:102D300024D5FFE79DF80800000700281DD5FFE710
:102D4000039801686FF00800086103990420087770
:102D500003980068C069800720B1FFE70398FFF778
:102D60007FFF06E0039800F08DF8039800F08EF8DE
:102D7000FFE7039900200877FFE7FFE79DF80400CD
:102D8000C006002825D5FFE79DF80800C0060028EA
:102D90001ED5FFE7039801686FF0100008610399E2
:102DA0000820087703980068C06910F4407F04D0B9
:102DB000FFE70398FFF754FF06E0039800F062F87E
:102DC000039800F063F8FFE7039900200877FFE716
:102DD000FFE79DF80400C00778B1FFE79DF8080001
:102DE000C00748B1FFE7039801686FF00100086170
:102DF000039800F04FF8FFE7FFE79DF80400000696
:102E0000002810D5FFE79DF808000006002809D526
:102E1000FFE7039801686FF0800008610398FFF7EF
:102E200049FEFFE7FFE79DF804004006002810D5A3
:102E3000FFE79DF808004006002809D5FFE7039842
:102E400001686FF040000861039800F035F8FFE773
:102E5000FFE79DF804008006002810D5FFE79DF8E5
:102E600008008006002809D5FFE7039801686FF085
:102E7000200008610398FFF721FEFFE7FFE704B099
:102E800080BD000081B0009001B0704781B000901B
:102E900001B0704780B582B001900198006840F69B
:102EA0000041C4F20001884203D1FFE7FEF7AEFF04
:102EB000FFE702B080BD000081B0009001B0704714
:102EC00080B582B00090009820B9FFE701208DF80E
:102ED000070040E00098806908B1FFE700E0FFE7E5
:102EE000009890F8410040B9FFE70099002081F870
:102EF0004000009800F034F8FFE70099242081F8A2
:102F0000410000980168C86820F40050C86000982B
:102F100001F0ACFA00980168086920F4904008615B
:102F200000980168486920F02A004861009801680B
:102F3000C86840F40050C860009900204864009AB6
:102F4000202182F84110009A82F8421000994863CB
:102F50008DF80700FFE79DF8070002B080BD000074
:102F600080B58EB00D9000200C900B900A900990C7
:102F700008900D98006844F60001C4F200018842F0
:102F80006AD1FFE7FFE70020079043F64000C4F254
:102F90000200016841F480210160006800F4802093
:102FA00007900798FFE7FFE70020069043F6300000
:102FB000C4F20200016841F004010160006800F001
:102FC000040006900698FFE74FF440600890022046
:102FD0000990002002900A9003200B9007200C908B
:102FE00040F60000C4F2020008A9FEF72DFD029988
:102FF00040F26450C2F20000039046F22802C4F28C
:10300000020202604FF0006242608160C1604FF4D2
:103010008062026141618161C1614FF440320262AC
:103020004162FEF759FC18B1FFE7FDF7DBFAFFE755
:10303000FFE70D9840F26451C2F20001C1630D98A0
:103040008863FFE72720019005210022FEF7B6FFE5
:103050000198FEF7A9FF3EE00D98006841F200419B
:10306000C4F20101884235D1FFE7FFE70020059057
:1030700043F64400C4F20200016841F020010160FF
:10308000006800F0200005900598FFE7FFE70020AA
:10309000049043F63000C4F20200016841F04001A0
:1030A0000160006800F0400004900498FFE74FF4CE
:1030B000844008900220099000200A9003200B9081
:1030C00008200C9041F60000C4F2020008A9FEF7A7
:1030D000BBFCFFE7FFE70EB080BD0000FFE7FEE7A7
:1030E00080B582B00190019808B9FFE71BE0019814
:1030F000007800F500700146009140F206218842F8
:1031000006D0FFE7009840F20721884205D009E089
:1031100001F02EFC0199C86005E001F02FFC019937
:10312000C86000E0FFE702B080BD000080B58CB051
:103130000B908DF82B108DF82A209DF82B000B9901
:1031400008700B990020039048600B9988600990E3
:10315000089007900690059004909DF82A0000289A
:1031600043D1FFE79DF82B0000F500700146029166
:1031700040F20621884206D0FFE7029840F207217C
:10318000884218D02FE00020C4F2400007904DF292
:103190000A70C3F6A330089041F26F21C3F60321F1
:1031A00009914FF082410491059041F26F20C3F6DE
:1031B0008320069018E00020C4F2400007904DF2F2
:1031C0000A70C3F6A330089041F26F21C3F60321C1
:1031D00009914FF082410491059041F26F20C3F6AE
:1031E0008320069000E0FFE738E09DF82A000128E0
:1031F00033D1FFE79DF82B0000F5007001460191E7
:1032000040F20621884206D0FFE7019840F20721EC
:10321000884210D01FE000200790089009904FF0DE
:10322000814004904CF6CD40C3F6CC6005904FF041
:103230008040069010E000200790089009904FF021
:10324000814004904CF6CD40C3F6CC6005904FF021
:103250008040069000E0FFE7FFE7FFE70B981030A3
:103260009DF82A1007AADFED0A0ACDED000AB0EE9C
:10327000600A00F06FFDDDED000A0B985C309DF8F0
:103280002A1004AAB0EE600A00F064FD0CB080BD04
:103290000000804684B002908DED010ACDED000A59
:1032A000029820B9FFE70020ADF80E0026E1029950
:1032B000086C48640299C86B086400980299886198
:1032C00001980299C8619DED000A9DED011A30EE4A
:1032D000410A029880ED0F0A02980078002840F019
:1032E0009080FFE7029890ED010A90ED0F1A20EE12
:1032F000010A80ED090A029890ED021A90ED0A0A7F
:1033000090ED0F2A21EE021A30EE010A80ED0A0A32
:103310000299486B88630299086B4863029890EDA4
:103320000F0A90ED101A30EE410A80ED0C0A029857
:1033300090ED030A90ED0C1A20EE010A80ED0B0AC5
:10334000029890ED051A90ED0A0AB4EE410AF1EEEA
:1033500010FA04DDFFE702994869886215E00298D7
:1033600090ED051A90ED0A0AB1EE411AB4EE410A49
:10337000F1EE10FA08DAFFE7029890ED050AB1EED7
:10338000400A80ED0A0AFFE7FFE7029890ED090A7C
:1033900090ED0A2A90ED0B1A30EE020A30EE010A87
:1033A00080ED080A029890ED041A90ED080AB4EE38
:1033B000410AF1EE10FA04DDFFE70299086908629C
:1033C00015E0029890ED041A90ED080AB1EE411A4A
:1033D000B4EE410AF1EE10FA08DAFFE7029890ED38
:1033E000040AB1EE400A80ED080AFFE7FFE7029801
:1033F00090ED080ABDEEC00A10EE100AADF80E00FE
:103400007CE002980078012874D1FFE7029890EDE3
:10341000010A90ED0F1A90ED102A31EE421A20EEBB
:10342000010A80ED090A029890ED020A90ED0F1A48
:1034300020EE010A80ED0A0A0299486B886302991E
:10344000086B4863029890ED0F0A90ED102A90EDFA
:10345000111A32EE022A30EE420A30EE010A80EDF5
:103460000C0A029890ED030A90ED0C1A20EE010A66
:1034700080ED0B0A029890ED080A90ED091A90ED84
:103480000A3A90ED0B2A31EE031A31EE021A30EEB1
:10349000010A80ED080A029890ED041A90ED080ADE
:1034A000B4EE410AF1EE10FA04DDFFE70299086973
:1034B000086215E0029890ED041A90ED080AB1EE4A
:1034C000411AB4EE410AF1EE10FA08DAFFE7029869
:1034D00090ED040AB1EE400A80ED080AFFE7FFE72D
:1034E000029890ED080ABDEEC00A10EE100AADF881
:1034F0000E0003E00020ADF80E00FFE7BDF90E005E
:1035000004B0704780B582B001908DF80310019827
:1035100008B9FFE720E09DF8030088B9FFE70198AC
:1035200000780138032809D8FFE7019800780138AE
:10353000C0B201F005FA0199486000E0FFE70BE036
:1035400001980078052805D1FFE701F01DFA0199DF
:10355000486000E0FFE7FFE702B080BD80B58CB0B7
:103560000B908DF82B108DF82A208DF829300B98B0
:1035700008B9FFE7FEE09DF82B000B9908700020CA
:103580000990089007900690059004909DF82900F6
:10359000002840F09D80FFE79DF82A00002842D1D6
:1035A000FFE79DF82B00013801460391032838D826
:1035B0000399DFE801F0020F1C290020C4F2F0108B
:1035C00007900020C4F2201008900020C4F2A00050
:1035D000099027E00020C4F2F01007900020C4F208
:1035E000201008900020C4F2A00009901AE00020EA
:1035F000C4F2F01007900020C4F2201008900020C0
:10360000C4F2A00009900DE00020C4F2F010079071
:103610000020C4F2201008900020C4F2A0000990FD
:1036200000E0FFE753E09DF82A0001284ED1FFE7B4
:103630009DF82B00013801460291032844D80299D5
:10364000DFE801F00212223243F23330C4F2730099
:1036500007904CF6CD40C3F6CC6008904DF20A704E
:10366000C3F62340099030E043F23330C4F27300D4
:1036700007904CF6CD40C3F6CC6008904DF20A702E
:10368000C3F62340099020E043F23330C4F27300C4
:1036900007904CF6CD40C3F6CC6008904DF20A700E
:1036A000C3F62340099010E043F23330C4F27300B4
:1036B00007904CF6CD40C3F6CC6008904DF20A70EE
:1036C000C3F62340099000E0FFE7FFE7FFE738E09B
:1036D0009DF82A00B8B9FFE79DF82B00052810D106
:1036E000FFE743F23330C4F2730007904CF6CD404D
:1036F000C3F6CC6008904DF20A70C3F623400990DF
:1037000000E0FFE71CE09DF82A00012817D1FFE741
:103710009DF82B00052810D1FFE743F23330C4F2A7
:10372000730007904CF6CD40C3F6CC6008904DF284
:103730000A70C3F62340099000E0FFE7FFE7FFE7C8
:10374000FFE70B9808309DF82A1007AADFED0A0A58
:10375000CDED010AB0EE600A00F0FCFADDED010AE1
:103760000B9854309DF82A1004AAB0EE600A00F0BD
:10377000F1FAFFE70CB080BD0000804684B00290F3
:103780008DED010ACDED000A029820B9FFE7002077
:10379000ADF80E0026E10299086C48640299C86BE6
:1037A000086400980299886101980299C8619DEDAA
:1037B000000A9DED011A30EE410A029880ED0F0AD1
:1037C00002980078002840F09080FFE7029890ED82
:1037D000010A90ED0F1A20EE010A80ED090A029805
:1037E00090ED021A90ED0A0A90ED0F2A21EE021ACE
:1037F00030EE010A80ED0A0A0299486B886302994B
:10380000086B4863029890ED0F0A90ED101A30EEA5
:10381000410A80ED0C0A029890ED030A90ED0C1A13
:1038200020EE010A80ED0B0A029890ED051A90ED4A
:103830000A0AB4EE410AF1EE10FA04DDFFE702993C
:103840004869886215E0029890ED051A90ED0A0A21
:10385000B1EE411AB4EE410AF1EE10FA08DAFFE7D0
:10386000029890ED050AB1EE400A80ED0A0AFFE7E2
:10387000FFE7029890ED090A90ED0A2A90ED0B1AE5
:1038800030EE020A30EE010A80ED080A029890ED4F
:10389000041A90ED080AB4EE410AF1EE10FA04DDC4
:1038A000FFE702990869086215E0029890ED041A92
:1038B00090ED080AB1EE411AB4EE410AF1EE10FAA9
:1038C00008DAFFE7029890ED040AB1EE400A80EDB5
:1038D000080AFFE7FFE7029890ED080ABDEEC00A6C
:1038E00010EE100AADF80E007CE002980078012876
:1038F00074D1FFE7029890ED010A90ED0F1A90ED58
:10390000102A31EE421A20EE010A80ED090A0298CF
:1039100090ED020A90ED0F1A20EE010A80ED0A0ADE
:103920000299486B88630299086B4863029890ED8E
:103930000F0A90ED102A90ED111A32EE022A30EEA5
:10394000420A30EE010A80ED0C0A029890ED030A5B
:1039500090ED0C1A20EE010A80ED0B0A029890ED12
:10396000080A90ED091A90ED0A3A90ED0B2A31EE13
:10397000031A31EE021A30EE010A80ED080A0298AD
:1039800090ED041A90ED080AB4EE410AF1EE10FA37
:1039900004DDFFE702990869086215E0029890EDDE
:1039A000041A90ED080AB1EE411AB4EE410AF1EEA4
:1039B00010FA08DAFFE7029890ED040AB1EE400A27
:1039C00080ED080AFFE7FFE7029890ED080ABDEED8
:1039D000C00A10EE100AADF80E0003E00020ADF8AA
:1039E0000E00FFE7BDF90E0004B0704780B582B04D
:1039F00040F21450C2F20000009046F20041C4F2BE
:103A00000001016003214160002101918160C160DA
:103A10004FF4102202614FF40012426101764176A8
:103A20008176C17601774177FDF7B2FA18B1FFE7E9
:103A3000FCF7D8FDFFE702B080BD000080B582B082
:103A400040F23C50C2F20000009046F60001C4F281
:103A50000001016003214160002101918160C1608A
:103A60004FF4102202614FF4001242610176417658
:103A70008176C17601774177FDF78AFA18B1FFE7C1
:103A8000FCF7B0FDFFE702B080BD000080B582B05A
:103A9000FFE70020019043F63000C4F20200016805
:103AA00041F400110160006800F4001001900198D9
:103AB000FFE70C20009005210022FEF77FFA009816
:103AC000FEF772FA02B080BD80B582B000F0C0FE91
:103AD00002F00AF900F09EFAFCF788FD44F2751036
:103AE000C0F6000047F60802C0F60002002101916E
:103AF00000F0D4FF019940F2D042C2F200021060FF
:103B000044F28100C0F6000047F29C72C0F6000249
:103B100000F0C4FF019940F2B022C2F2000210602E
:103B200040F20560C0F6000047F27872C0F600026D
:103B300000F0B4FF019940F29022C2F2000210603E
:103B400044F22940C0F6000047F2C072C0F60002FD
:103B500000F0A4FF019940F2B422C2F2000210600A
:103B600044F2F560C0F6000047F2E472C0F60002CD
:103B700000F094FF40F20C41C2F20001086002B074
:103B800080BD000086B0FFE70020059043F63000BE
:103B9000C4F20200016841F002010160006800F017
:103BA000020005900598FFE7FFE70020049043F628
:103BB0003000C4F20200016841F040010160006879
:103BC00000F0400004900498FFE7FFE70020039016
:103BD00043F63000C4F20200016841F001010160C7
:103BE000006800F0010003900398FFE7FFE7002062
:103BF000029043F63000C4F20200016841F008016F
:103C00000160006800F0080002900298FFE7FFE7FB
:103C10000020019043F63000C4F20200016841F038
:103C200004010160006800F0040001900198FFE7C2
:103C3000FFE70020009043F63000C4F20200016864
:103C400041F080010160006800F080000090009861
:103C5000FFE706B07047000080B582B040F20C600C
:103C6000C2F20000019044F60001C4F200010160BC
:103C700048F2A061C0F20101416000218160C16091
:103C80004FF4806202610C2242618161C161FFF7E1
:103C900017F918B1FFE7FCF7A5FCFFE702B080BDFC
:103CA00080B582B040F25460C2F20000019041F24F
:103CB0000041C4F2010101604FF4E1314160002193
:103CC0008160C16001610C2242618161C161FFF7C5
:103CD000F7F818B1FFE7FCF785FCFFE702B080BDFD
:103CE000FFE7FEE7FFE7FEE788B007900691059241
:103CF000079800F0070004900498C0F10700052819
:103D000003D3FFE70420019004E00498C0F107000A
:103D10000190FFE70198039004980430062803D827
:103D2000FFE70020009003E0049803380090FFE7CD
:103D30000098029006980399012202FA01F10139D4
:103D40000840029B984005999A40013A1140084367
:103D500008B0704786B005908DF8131003928DED72
:103D6000020ACDED010A059818B1FFE7039808B9DA
:103D7000FFE72EE09DF8130005990870039800688E
:103D800005994860039840680599886003988068A1
:103D90000599C860029805990861019805994861DC
:103DA0000599002000908863059948630599086388
:103DB000059908620599C862059988620599486263
:103DC00005994864059908640599C863059988644C
:103DD000FFE706B070470000000000000000000090
:103DE000EFF30980BFF36F8F154B1A681EF0100FA9
:103DF00008BF20ED108A20E9F04F10602DE909007E
:103E00004FF0500080F31188BFF34F8FBFF36F8FD7
:103E100002F06AFB4FF0000080F31188BDE8090052
:103E200019680868B0E8F04F1EF0100F08BFB0EC3A
:103E3000108A80F30988BFF36F8F704700BF00BFFF
:103E4000D807002083B002900191ADF8022040F223
:103E50000C60C2F200000268516941F040015161FA
:103E60000168C86840F01000C86040F26450C2F2B7
:103E700000000168086820F001000860FFE740F2D8
:103E80006450C2F2000000680068C00750B1FFE74C
:103E900040F26450C2F200000168086820F001009E
:103EA0000860ECE740F26450C2F20000026844F699
:103EB0000401C4F20001916002990268D160019985
:103EC00002681161BDF80210026851600268116851
:103ED00041F4802111600168086840F00100086029
:103EE00003B0704700000000000000000000000068
:103EF000074B19680868B0E8F04F80F30988BFF3F2
:103F00006F8F4FF0000080F31188704700BF00BF33
:103F1000D807002080B56FF00400002100F058FCA5
:103F200080BD000080B588B08DED070ACDED060A92
:103F30008DED051ACDED041A40F21000C2F200001A
:103F4000029000210191FFF7DDFA01990298A0305B
:103F5000FFF7D8FA0199029800F5A070FFF7D2FA9E
:103F60000199029800F5F070FFF7CCFA02984168C9
:103F7000B1F9021000EE101AB8EEC00ADDED070A22
:103F80000830FFF7FBFB0146029840F2A422C2F280
:103F9000000203921180D0F8A410B1F9021000EED3
:103FA000101AB8EEC00ADDED060AA830FFF7E6FBEE
:103FB000039A014602985180D0F84411B1F90210D9
:103FC00000EE101AB8EEC00ADDED050A00F5A47087
:103FD000FFF7D4FB039A014602989180D0F8E411D0
:103FE000B1F9021000EE101AB8EEC00ADDED040AB5
:103FF00000F5F470FFF7C2FB039BD880B3F9000013
:10400000B3F90210B3F90420B3F90630FCF770F9E4
:1040100008B080BD80B584B040F21000C2F200004C
:10402000009001210391002301931A46FFF796FAAD
:104030000098019BA03002211A46FFF78FFA0098E2
:10404000019B00F5A07003211A46FFF787FA00983C
:10405000019B00F5F07004211A46FFF77FFA039ADE
:1040600040F2B820C2F2000002900621FFF75EF88D
:104070000298039AA8300721FFF758F804B080BDD2
:1040800080B582B00190FFE740F65040C2F20000D8
:10409000C07A01280BD1FFE79FED151ADFED151A45
:1040A000B0EE610AF0EE410AFFF73CFF1AE040F67D
:1040B0005040C2F20000C07A03280BD1FFE7DFEDC9
:1040C0000B1AB0EE610AF0EE610AB0EE611AFFF76A
:1040D00029FF06E00023184619461A46FCF708F99E
:1040E000FFE7FFE7052000F071FCCDE700000000CE
:1040F0000080BB450080BBC580B584B08DED030A50
:10410000CDED020A40F2B820C2F200000090FEF7A6
:10411000E7FF0098A830FEF7E3FF0098C168B1F907
:10412000021000EE101AB8EEC00ADDED030A5C3092
:10413000FFF7B0F80146009840F2AC22C2F200024C
:1041400001921180D0F8B410B1F9021000EE101AEB
:10415000B8EEC00ADDED020A00F58270FFF79AF8AA
:1041600001994880B1F90000B1F90210FCF74AF951
:1041700004B080BD80B582B00190FFE7012000F05F
:1041800025FCFBE780B54EF21000CEF2000000687F
:1041900002F086FF012803D0FFE702F0B5FAFFE73F
:1041A00080BD000080B594B008A83021FCF752F81B
:1041B000002007900690059004900390FFE70020F0
:1041C000029043F64000C4F20200016841F08051C1
:1041D0000160006800F0805002900298FFE7FFE75E
:1041E0000020019047F20000C4F20000016841F491
:1041F00080410160006800F4804001900198FFE771
:104200000220089001210B9110210C910E900021A9
:104210000F9108211091A821119112900420139060
:1042200008A8FEF7E7F818B1FFE7FCF7DBF9FFE7AE
:104230000F20039002200490002005904FF4A0501E
:1042400006904FF48050079003A80521FDF7D8FE93
:1042500018B1FFE7FCF7C6F9FFE714B080BD000016
:104260004EF68851CEF20001086840F470000860F4
:104270007047000080B540F2C450C2F20000FEF763
:10428000F3FC80BD83B00290019102980068009019
:1042900002980021C4F20101884225D0FFE702986C
:1042A000B0F1804F20D0FFE7029840F20041C4F205
:1042B0000001884218D0FFE7029840F60001C4F2DE
:1042C0000001884210D0FFE7029840F60041C4F296
:1042D0000001884208D0FFE7029840F20041C4F292
:1042E000010188420AD1FFE7009820F07000009099
:1042F00001984168009808430090FFE70298002168
:10430000C4F20101884255D0FFE70298B0F1804F16
:1043100050D0FFE7029840F20041C4F20001884209
:1043200048D0FFE7029840F60001C4F2000188423D
:1043300040D0FFE7029840F60041C4F200018842F5
:1043400038D0FFE7029840F20041C4F201018842F0
:1043500030D0FFE7029844F20001C4F20101884224
:1043600028D0FFE7029844F20041C4F201018842DC
:1043700020D0FFE7029844F60001C4F20101884210
:1043800018D0FFE7029841F60001C4F2000188420C
:1043900010D0FFE7029841F60041C4F200018842C4
:1043A00008D0FFE7029842F20001C4F200018842FF
:1043B0000AD1FFE7009820F4407000900198C1688E
:1043C000009808430090FFE7009820F080000199D2
:1043D000496908430090019880680299C862019871
:1043E00000680299886202980021C4F201018842A3
:1043F00008D0FFE7029840F20041C4F20101884270
:1044000005D1FFE70198006902990863FFE7029967
:10441000086840F004000860029901204861009893
:104420000299086003B0704780B582B00190FFE741
:1044300040F65040C2F20000B0F90010B0F902009E
:1044400000EE101AB8EEC00AB2EE041A20EE010A0D
:1044500001EE100AB8EEC11AB2EE0C2A61EE020AA1
:10446000FFF74AFE052000F0B1FAE1E780B586B01B
:10447000059005980068006920F44050059A11687D
:10448000D26810430861059988680B694A69C9694F
:10449000184310430843049005980068C06849F227
:1044A0000C6188430499084305990968C860059818
:1044B0000068406920F44070059A116892691043C1
:1044C00048610598006841F20001C4F20101884288
:1044D00009D0FFE70598006841F20041C4F20101EC
:1044E000884204D1FFE7FDF7FFFE039003E0FDF7EC
:1044F000E9FE0390FFE70598C069B0F5004F29D1A8
:10450000FFE703981921A0FB0101059A13680293A4
:1045100053685A00DB0FFBF753FE0299864648F2B8
:104520001F53C5F2EB13AEFB0320420910014FF0FD
:10453000640C02FB1CEC322202EBCC02A2FB033225
:10454000F82303EA521300EB4300C2F34212104473
:10455000886026E003981921A0FB0101059A1368E1
:10456000019353689A009B0FFBF72AFE019984463A
:1045700048F21F52C5F2EB12ACFB02304309642033
:1045800003FB10CC322000EB0C10A0FB0202F02049
:1045900000EA521000EB0310C2F34312104488608B
:1045A000FFE706B080BD000080B582B040F20C602D
:1045B000C2F20000006800688006002810D5FFE7FE
:1045C000FFE70020019040F20C60C2F20000016899
:1045D000096801910068406801900198FFE785E053
:1045E00044F60000C4F200000068C00600287CD534
:1045F000FFE7FFE70020009040F20C60C2F20000ED
:104600000168096800910068406800900098FFE721
:1046100040F26450C2F20000006800680003002805
:104620002FD4FFE740F26451C2F200010A6810681B
:1046300020F00100106008684068C0F1240240F2D8
:104640000840C2F2000002800B6824225A600B6806
:104650001A6842F400221A600A68116841F00101E8
:104660001160008812280BD1FFE740F66640C2F2C5
:10467000000040F65041C2F2000101F047FBFFE7A5
:1046800032E040F26451C2F200010A68106820F082
:104690000100106008684068C0F1240240F2084040
:1046A000C2F2000002800B6824225A6046F22803FE
:1046B000C4F202031A6822F400221A600A68116820
:1046C00041F001011160008812280CD1FFE740F68B
:1046D0006640C2F20000243040F65041C2F20001B0
:1046E00001F014FBFFE7FFE7FFE7FFE702B080BD43
:1046F000FFE7FEE780B582B00190FFE70A2000F0F7
:1047000065F9FBE780B584B003A8009080ED000A4E
:1047100040F21040C2F2000001900121FEF7F2FECB
:10472000009901984268B2F9022000EE102AB8EE12
:10473000C00AD1ED000A0830FFF720F8ADF80A00F2
:10474000BDF90A00FBF726FE04B080BD81B08DF8EC
:1047500003009DF9030000280ED4FFE79DF9031024
:1047600001F01F02012090404A094EF20011CEF2E2
:10477000000141F82200FFE701B070474EF60C50EF
:10478000CEF200000068C0F30220704782B08DF8BE
:10479000070000919DF9070000280AD4FFE7009860
:1047A00000019DF907104EF20042CEF2000288543B
:1047B0000BE0009800019DF8071001F00F014EF684
:1047C0001452CEF200028854FFE702B07047000096
:1047D00082B08DF8070000919DF9070000280AD4E7
:1047E000FFE7009800019DF907104EF20042CEF25B
:1047F000000288540BE0009800019DF8071001F0BA
:104800000F014EF61452CEF200028854FFE702B0B8
:104810007047000083B00290029800F007000090FB
:104820004EF60C51CEF200010868019001984FF647
:10483000FF02104001900198009A40EA02200022F5
:10484000C0F2FA52104301900198086003B070471B
:1048500080B58CB001210A91002008900991029046
:10486000039004900590079006900E200B9040F264
:104870001450C2F2000002A9FBF7B2FF8DF8070046
:104880009DF8070010B1FFE7FFE7FEE740F2145084
:10489000C2F20000FCF72EFE8DF807009DF807001D
:1048A00010B1FFE7FFE7FEE740F21450C2F200004C
:1048B0000221FBF7BFFE8DF807009DF8070010B13D
:1048C000FFE7FFE7FEE7012008900021099144F28D
:1048D000C002029244F2E0020392049105910E217B
:1048E0000791069040F23C50C2F2000002A9FBF78B
:1048F00077FF8DF807009DF8070010B1FFE7FFE78D
:10490000FEE740F23C50C2F20000FCF7F3FD8DF8E8
:1049100007009DF8070010B1FFE7FFE7FEE740F250
:104920003C50C2F200001021FBF784FE8DF8070016
:104930009DF8070010B1FFE7FFE7FEE70CB080BD70
:1049400081B08DF803009DF8030000F0030000EB38
:10495000800140F29C60C2F2000000EB410001B017
:104960007047000040F65040C2F20000704700005F
:1049700040F29C60C2F200003230704740F29C600E
:10498000C2F200003C30704740F29C60C2F200006E
:104990002830704780B582B000200190FDF744FABE
:1049A000FFF700FCFFF7EEF8FFF770F8FFF71EF8CF
:1049B000FFF744F8FFF750F9FFF772F900F020F81D
:1049C000FFF782F800F040F8FFE7FEE780B584B01B
:1049D0000290EFF305800390039820B1FFE76FF09A
:1049E0000500019009E000200190029820B1FFE746
:1049F000029801F063FCFFE7FFE7019804B080BD77
:104A000082B0EFF305800190019820B1FFE76FF0CD
:104A10000500009014E040F29C20C2F20000006803
:104A200048B9FFE740F29C21C2F200010120086072
:104A30000020009003E04FF0FF300090FFE7FFE719
:104A4000009802B07047000080B582B0EFF3058097
:104A50000190019820B1FFE76FF00500009019E088
:104A600040F29C20C2F20000006801280DD1FFE74F
:104A7000FFF750FA40F29C21C2F2000102200860C8
:104A800001F0BAFC0020009003E04FF0FF300090EE
:104A9000FFE7FFE7009802B080BD0000B0B58EB020
:104AA0000B900A91099200200690EFF305800D907B
:104AB0000D98002840F09980FFE70B98002800F03F
:104AC0009480FFE780200790182005900020089030
:104AD0004FF0FF300490099800284DD0FFE7099867
:104AE000006820B1FFE7099800680890FFE709987F
:104AF000806920B1FFE7099880690590FFE7059874
:104B000048B1FFE70598382805D8FFE709980079EC
:104B1000C00718B1FFE700200C9069E009984069D0
:104B200028B1FFE70998406980080790FFE70998D6
:104B3000806880B1FFE70998C0685C280BD3FFE765
:104B40000998006938B1FFE70998406918B1FFE793
:104B5000012004900FE00998806858B9FFE7099890
:104B6000C06838B9FFE70998006918B9FFE7002065
:104B70000490FFE7FFE702E000200490FFE70498BD
:104B8000012817D1FFE70B980899079A0A9BDDF8CF
:104B900014C0DDF824E0DEF80850DEF81040EE46E0
:104BA000CEF80850CEF80440CEF800C002F010FA5B
:104BB000069019E00498B0B9FFE70B980899BDF882
:104BC0001C200A9BDDF814C0EE4606ACCEF804406B
:104BD000CEF800C002F0ACF9012803D0FFE70020B6
:104BE0000690FFE7FFE7FFE7FFE706980C90FFE777
:104BF0000C980EB0B0BD000080B584B00390029157
:104C000045F28000C2F200000068009040F2D870C7
:104C1000C2F200000068043001F008F908B9FFE7AB
:104C200000E0FFE70398013080B9FFE7029868B120
:104C3000FFE740F2D870C2F200000068011D45F2A3
:104C40005800C2F2000001F097F93DE00098039986
:104C500008440190019840F2D871C2F2000109683D
:104C600048600198009988420ED2FFE740F2E87050
:104C7000C2F20000006840F2D871C2F20001096877
:104C8000043101F043F91EE040F2E070C2F200008E
:104C9000006840F2D871C2F200010968043101F0E5
:104CA00035F9019844F6E471C2F2000109688842BE
:104CB00007D2FFE7019844F6E471C2F200010860F0
:104CC00000E0FFE7FFE7FFE704B080BD80B582B0FA
:104CD000019001F079F944F6B801C2F200010868C8
:104CE0000130086040F2D870C2F20000006898B944
:104CF000FFE7019840F2D871C2F20001086044F663
:104D0000B800C2F200000068012803D1FFE700F0FC
:104D1000F7FA00E0FFE71CE045F24C00C2F20000A9
:104D20000068A0B9FFE740F2D870C2F20000006846
:104D3000C06A0199C96A884207D8FFE7019840F222
:104D4000D871C2F20001086000E0FFE700E0FFE771
:104D5000FFE744F6C400C2F20000016801310160BF
:104D60000068019948640198C06A44F6C801C2F21B
:104D700000010968884208D9FFE70198C06A44F633
:104D8000C801C2F200010860FFE70199C86A00EBA0
:104D9000800240F2F070C2F2000000EB82000431A9
:104DA00001F0EAF801F03CF945F24C00C2F20000D3
:104DB0000068C8B1FFE740F2D870C2F20000006896
:104DC000C06A0199C96A88420CD2FFE74EF60451C5
:104DD000CEF200014FF080500860BFF34F8FBFF359
:104DE0006F8F00E0FFE700E0FFE702B080BD00004A
:104DF00080B584B001F0E8F845F28400C2F200000A
:104E00000068002840D1FFE744F68470C2F2000039
:104E1000029001F05BF844F69870C2F20000039033
:104E200001F054F80299039840F2DC72C2F20002D9
:104E3000116040F2EC71C2F2000108606946002086
:104E4000086040F2E262C2F2000240F28473C2F2F1
:104E500000030A20102101F075FC014645F2840090
:104E6000C2F200000160006860B1FFE745F2840013
:104E7000C2F20000006847F65B01C0F6000101F0D5
:104E8000C1F900E0FFE700E0FFE701F0C9F804B076
:104E900080BD000080B582B0FFE744F6BC00C2F2DE
:104EA0000000006808B3FFE701F08EF845F26C00DF
:104EB000C2F20000C068C06801900198043000F0A0
:104EC000B5FF44F6B801C2F2000108680138086075
:104ED00044F6BC01C2F2000108680138086001F024
:104EE0009FF8019800F08CF8D7E702B080BD000071
:104EF00080B582B0019000910198006CB8B1FFE7D5
:104F00000199C8680A6C1044C86001988168C0683B
:104F1000884204D3FFE701990868C86000E0FFE712
:104F20000098019AD168126CFBF77BF9FFE702B099
:104F300080BD000080B586B00590049103920020EA
:104F400002900598806B01900598006C78B9FFE796
:104F50000598006848B9FFE70598806802F0A8F94D
:104F6000029005990020886000E0FFE741E0039887
:104F7000B8B9FFE7059A04995068126CFBF751F92C
:104F8000059948680A6C1044486005994868896822
:104F9000884204D3FFE705990868486000E0FFE70E
:104FA00026E0059A0499D068126CFBF73AF9059946
:104FB000C8680A6C801AC86005980168C068884291
:104FC00006D2FFE7059988680A6C801AC86000E07D
:104FD000FFE70398022809D1FFE7019820B1FFE716
:104FE00001980138019000E0FFE700E0FFE7FFE7EC
:104FF000FFE70198013005998863029806B080BDEB
:1050000080B582B00090009890F8590040B9FFE751
:105010000098006B01F02AF8009801F027F81CE0D6
:10502000009890F85900012804D1FFE7009801F09A
:105030001DF811E0009890F8590002280BD0FFE706
:105040004FF0500080F31188BFF36F8FBFF34F8F85
:105050000190FFE7FEE7FFE7FFE702B080BD000039
:1050600082B0019040F2DC70C2F20000006800687B
:10507000B0FA80F04009019908600198006848B9C9
:10508000FFE740F2DC70C2F200000068C068006810
:10509000009002E000200090FFE7009802B0704707
:1050A00084B04FF47050009040F6AE40C2F2000061
:1050B00001909DF80400400788B1FFE70198073090
:1050C0000190019820F007000190019A40F6AE414E
:1050D000C2F200010098891A08440090FFE7019885
:1050E0000290029945F25000C2F2000001600021D6
:1050F00041600298009A104401900198083801908C
:10510000019820F007000190019A40F2E470C2F289
:105110000000026002685160026811600299039108
:105120000199039A891A51600068039908600398ED
:10513000406844F6E071C2F20001086003984068DC
:1051400044F6D871C2F20001086044F6AC71C2F2B4
:1051500000014FF00040086004B0704780B582B095
:105160000190FFE7FFF796FE40F2F070C2F20000F8
:10517000006802280CD3FFE74EF60451CEF200017E
:105180004FF080500860BFF34F8FBFF36F8F00E088
:10519000FFE7E7E780B584B0DDF818C0039002911F
:1051A00001928DF80330029818B9FFE70698006065
:1051B00003E0019806990860FFE703980699C86321
:1051C0000298069908640698012101F043FB9DF8B6
:1051D0000300069981F84C0004B080BD80B588B00A
:1051E000DDF834C0DDF830C0DDF82CC0DDF828C0B3
:1051F00006900591049203930C98006B0499890022
:10520000A522FBF720F80C98006B049900EB8100B5
:1052100004380290029820F0070002909DF80800E0
:10522000400758B1FFE74FF0500080F31188BFF3FB
:105230006F8FBFF34F8F0790FFE7FEE70598F8B138
:10524000FFE700200190FFE701980F2813D8FFE740
:105250000598019A805C0C99114481F834000598F6
:105260000199405C08B9FFE705E0FFE7FFE7019817
:1052700001300190E8E70C99002081F8430004E038
:105280000C99002081F83400FFE70A98382803D3EE
:10529000FFE737200A9000E0FFE70A980C99C86200
:1052A0000A980C99C8640C990020009008650C9825
:1052B000043000F023FE0C98183000F01FFE009818
:1052C0000C9909610A99C1F138010C9A91610C9904
:1052D00049620C9948650C9981F858000298069922
:1052E000039A00F0D1FC0C9908600B9820B1FFE7FD
:1052F0000C980B99086000E0FFE708B080BD000043
:1053000080B584B000200390FFE70398372810D8B9
:10531000FFE7039800EB800140F2F070C2F200005A
:1053200000EB810000F0D2FDFFE70398013003900D
:10533000EBE744F6B070C2F20000019000F0C6FD49
:1053400044F6C470C2F20000029000F0BFFD44F6C3
:10535000F870C2F2000000F0B9FD45F26C00C2F234
:10536000000000F0B3FD45F25800C2F2000000F06A
:10537000ADFD0199029840F2E072C2F200021160A4
:1053800040F2E871C2F20001086004B080BD000084
:1053900083B0029045F25000C2F200000190FFE796
:1053A000019800680299884205D2FFE7FFE701985B
:1053B00000680190F4E7019800900098019949680D
:1053C00008440299884209D1FFE70298426801998E
:1053D0004868104448600198029000E0FFE7029896
:1053E0000090009802994968084401990968884228
:1053F00020D1FFE70198006840F2E471C2F2000199
:10540000096888420DD0FFE7019800684268029958
:105410004868104448600198006800680299086074
:1054200007E040F2E470C2F20000006802990860F0
:10543000FFE704E00198006802990860FFE701981F
:105440000299884204D0FFE702980199086000E0C1
:10545000FFE703B07047000080B586B00590049167
:1054600003920293002001900498059948600598E2
:10547000006104980399884216D8FFE703980299BF
:10548000401A05998969884203D3FFE701200190FA
:1054900009E040F2EC70C2F20000006805990431A6
:1054A00000F034FDFFE717E003980299884208D224
:1054B000FFE704980299884203D3FFE70120019097
:1054C00009E040F2DC70C2F2000000680599043186
:1054D00000F01CFDFFE7FFE7019806B080BD00006B
:1054E00080B582B0019000F06FFD0198806B18B913
:1054F000FFE70120009002E000200090FFE700F0AD
:105500008FFD009802B080BD80B582B0019000F0A0
:105510005BFD0198806B0199C96B884203D1FFE75D
:105520000120009002E000200090FFE700F078FDED
:10553000009802B080BD000008480068006880F351
:1055400008884FF0000080F3148862B661B6BFF39C
:105550004F8FBFF36F8F00DF00BF00BF08ED00E08B
:1055600080B586B00490039140F2DC70C2F2000076
:105570000068C068C06801900198043000F056FCD3
:10558000019890F828004007002823D5FFE70198EC
:10559000049B81691944039AFFF75EFFC0B1FFE7DE
:1055A0000198049A694600230B60194602F06CF8D2
:1055B0000290029858B9FFE74FF0500080F311882D
:1055C000BFF36F8FBFF34F8F0590FFE7FEE700E05B
:1055D000FFE707E0019991F8280000F0FE0081F84C
:1055E0002800FFE70198016A884706B080BD0000E7
:1055F00080B58EB0FFE745F28400C2F2000000687B
:1056000007A9002201F040FB002800F0B880FFE766
:105610000798B0F1FF3F17DCFFE707A804300290BE
:10562000029858B9FFE74FF0500080F31188BFF39C
:105630006F8FBFF34F8F0B90FFE7FEE702990A6869
:1056400048688968904700E0FFE70798002800F164
:105650009580FFE7099806900698406928B1FFE712
:105660000698043000F0E2FB00E0FFE705A800F038
:10567000FBF8039007980190092800F27D800199BA
:10568000DFE801F00505053D456605053D45069940
:1056900091F8280040F0010081F828000698089B46
:1056A00081691944039AFFF7D7FE30B3FFE70698E4
:1056B000016A8847069890F82800400700281AD504
:1056C000FFE70698089982690A44694600230B603F
:1056D000194601F0D9FF0490049858B9FFE74FF03C
:1056E000500080F31188BFF36F8FBFF34F8F0C9082
:1056F000FFE7FEE700E0FFE700E0FFE73DE0069997
:1057000091F8280000F0FE0081F8280035E00699A5
:1057100091F8280040F0010081F8280008980699C7
:1057200088610698806958B9FFE74FF0500080F310
:105730001188BFF36F8FBFF34F8F0D90FFE7FEE728
:105740000698039B816919441A46FFF785FE14E009
:10575000069890F828008007002804D4FFE70698F0
:1057600000F084FC07E0069991F8280000F0FE00A4
:1057700081F82800FFE700E0FFE7FFE73BE70EB016
:1057800080BD000080B584B00390029100F0A4FEBB
:10579000684600F069F801900098D8BBFFE70298CE
:1057A00060B9FFE703980199884207D8FFE701F045
:1057B0005DFE03980199FFF7D3FE2AE0029858B1E5
:1057C000FFE740F2EC70C2F2000000680068B0FA37
:1057D00080F040090290FFE745F28400C2F2000029
:1057E00000680399019A891A029A00F035FD01F0C8
:1057F0003DFE60B9FFE74EF60451CEF200014FF0D6
:1058000080500860BFF34F8FBFF36F8F00E0FFE75A
:10581000FFE702E001F02AFEFFE704B080BD0000D0
:1058200081B040F2E070C2F200000068006840B948
:10583000FFE744F6E471C2F200014FF0FF30086068
:105840000FE040F2E070C2F200000068C068C0687B
:1058500000900098406844F6E471C2F200010860CC
:10586000FFE701B07047000080B582B0019001F001
:1058700033FC0090009840F2D471C2F20001096834
:10588000884206D2FFE700F011F801990120086074
:1058900003E0019900200860FFE7009840F2D4710E
:1058A000C2F200010860009802B080BD80B588B0E7
:1058B000FFE740F2DC70C2F20000006800680028D8
:1058C0004ED0FFE740F2DC70C2F200000168C96808
:1058D000096806910068C068C068039003980430A6
:1058E00000F0A4FA0398016A8847039890F828000A
:1058F0004007002832D5FFE70698039989690844D4
:1059000005900598069988420FD9FFE705980399F5
:1059100048600398006140F2DC70C2F20000006849
:105920000399043100F0F2FA17E00398069A6946E9
:1059300000230B60194601F0A7FE0290029858B9A7
:10594000FFE74FF0500080F31188BFF36F8FBFF374
:105950004F8F0790FFE7FEE7FFE700E0FFE7A8E7CC
:1059600040F2DC72C2F200021068049040F2EC7166
:10597000C2F20001086810600498086008B080BD99
:1059800083B00020009040F20C00C2F200000068DA
:10599000013058B1FFE74FF0500080F31188BFF39A
:1059A0006F8FBFF34F8F0190FFE7FEE74FF050007E
:1059B00080F31188BFF36F8FBFF34F8F0290FFE723
:1059C000009808B9FFE7FBE703B0704780B584B0E3
:1059D0000390FFE701A8FFF743FB029002980199AB
:1059E000FFF7D0FEFFF704FEF4E7000080B582B0B9
:1059F000019000F0E9FA019890F845008DF8030055
:105A0000FFE79DF90300012816DBFFE70198406AD4
:105A100058B1FFE70198243001F0C0FC18B1FFE74E
:105A200000F096FC00E0FFE700E005E09DF80300D1
:105A300001388DF80300E4E70199FF2081F8450063
:105A400000F0EEFA00F0C0FA019890F844008DF8EA
:105A50000200FFE79DF90200012816DBFFE701982D
:105A6000006980B1FFE70198103001F097FC18B190
:105A7000FFE700F06DFC00E0FFE79DF80200013851
:105A80008DF8020000E000E0E4E70199FF2081F8D2
:105A9000440000F0C5FA02B080BD000080B58AB0B5
:105AA00006900020029000F017FD40F2E470C2F270
:105AB0000000006818B9FFE7FFF7F2FA00E0FFE71F
:105AC000069844F6AC71C2F200010968084240F041
:105AD000C580FFE7069800B3FFE7069808300690F8
